:200000000C94EE090C941F0A0C941F0A0C941F0A0C941F0A0C941F0A0C941F0A0C941F0ACA
:200020000C941F0A0C941F0A0C941F0A0C941F0A0C941F0A0C941F0A0C941F0A0C941F0A78
:200040000C941F0A0C94333E0C941F0A0C941F0A0C941F0A0C941F0A0C948B4D0C94DC4E60
:200060000C941F0A0C941C0E0C941F0A0C941F0A0C941F0A0C941F0A0C941F0A0C941F0A37
:200080000C941C290C941F0A0C941F0A0C941F0A0C941F0A0C941F0A0C941F0A0C941F0AFC
:2000A0000C941F0A0C941F0A0C9449290C941F0A0C941F0A0C941F0A0C941F0A0C94762939
:2000C0000C941F0A0C941F0A0C941F0A0C941F0A0C941F0A0C941F0A0C941F0A0C941F0AD8
:2000E0000C941F0ADD4DEA4D064E134E2D4E3A4E544E564EFF4F0450095013501D50965027
:2001000027502F50375041504B50555064506E509650785082508C50B750BA50A950AD50BC
:20012000B350F150BE50C250C850CC50D050D650DA50DE50F150E450E850EC50084AD73B3C
:200140003BCE016E84BCBFFDC12F3D6C74319ABD56833DDA3D00C77F11BED9E4BB4C3E91C1
:200160006BAAAABE000000803F05A84CCDB2D44EB93836A9020C50B9918688083CA6AAAAE5
:200180002ABE000000803F0048617264636F6465642044656661756C742053657474696EBE
:2001A0006773204C6F61646564002044002049002020204D333031205000504944207365A9
:2001C0007474696E67733A00205A0020590020204D323036205800486F6D65206F66667365
:2001E000657420286D6D293A00204500205A0020580020420020540020204D3230352053DD
:2002000000416476616E636564207661726961626C65733A20533D4D696E206665656472BB
:2002200061746520286D6D2F73292C20543D4D696E2074726176656C2066656564726174ED
:200240006520286D6D2F73292C20423D6D696E696D756D207365676D656E742074696D65A3
:2002600020286D73292C20583D6D6178696D756D205859206A65726B20286D6D2F73292C98
:2002800020205A3D6D6178696D756D205A206A65726B20286D6D2F73292C2020453D6D619A
:2002A00078696D756D2045206A65726B20286D6D2F73290020540020204D323034205300E6
:2002C000416363656C65726174696F6E3A20533D616363656C65726174696F6E2C20543DA3
:2002E0007265747261637420616363656C65726174696F6E00204500205A00205900202067
:200300004D3230312058004D6178696D756D20416363656C65726174696F6E20286D6D2F6C
:200320007332293A00204500205A0020590020204D3230332058004D6178696D756D20665F
:20034000656564726174657320286D6D2F73293A00204500205A0020590020204D393220B9
:20036000580053746570732070657220756E69743A006563686F3A005374616D70616E7474
:2003800065206665726D6174612061206361757361206469206572726F72692E205269732E
:2003A0006F6C7669206C276572726F7265206520757361204D393939207065722072697069
:2003C000617274697265212E202852657365742074656D70657261747572612E20496D70BE
:2003E0006F7374616C61207072696D612064692072697061727469726529005374616D7033
:20040000616E74652043616C64612E206B696C6C282920636869616D617461202121006FCB
:200420006B005265696E766961746F3A002200436F6D616E646F2073636F6E6F736369758D
:20044000746F3A22007A5F6D696E3A2000795F6D696E3A2000785F6D696E3A20005A3A0067
:20046000593A002043616C636F6C6120583A00453A005A3A00593A00583A004649524D57AB
:200480004152455F4E414D453A4D61726C696E20563120436F6E666967757261746F20708F
:2004A0006572204172616B6E6961205072757361206933204649524D574152455F55524CD8
:2004C0003A687474703A2F2F7777772E6172616B6E69612E6F72672050524F544F434F4C18
:2004E0005F56455253494F4E3A312E30204D414348494E455F545950453A506C6F74746546
:20050000722045585452554445525F434F554E543A310A0020423A0020453A00543A002090
:20052000573A0020453A00543A002042403A0020403A00202F003A00205400202F002042D9
:200540003A00202F006F6B20543A002569206D696E2C20256920736563005374616D7061FD
:200560006E7465206665726D6174612061206361757361206469206572726F72692E205246
:2005800069736F6C7669206C276572726F7265206520757361204D39393920706572207284
:2005A0006970617274697265212E202852657365742074656D70657261747572612E2049E0
:2005C0006D706F7374616C61207072696D612064692072697061727469726529006F6B009F
:2005E0004E657373756E204E756D65726F206469204C696E656120636F6E20436865636B95
:2006000073756D2C20556C74696D61204C696E65613A004E657373756E20436865636B739D
:20062000756D20636F6E204E756D65726F206469204C696E65612C20556C74696D61204CC8
:20064000696E65613A00636865636B73756D206E6F6E20636F72726973706F6E64656E745B
:20066000652C20556C74696D61204C696E65613A00496C204E756D65726F2064656C6C61AD
:20068000204C696E6561206E6F6E20636F72726973706F6E646520616C204E756D65726F9B
:2006A0002064656C6C27556C74696D61204C696E65612B312C20556C74696D61204C696E86
:2006C00065613A004D313130002020506C616E6E657242756666657242797465733A200070
:2006E000204D656D6F726961204C69626572613A20004A756E203130203230313600436FFE
:200700006D70696C65643A2000284172616B6E6961204D7963726120436F72655859290086
:20072000207C204175746F72653A20004A756E203130203230313630372F30312F323031E3
:20074000362031323A31363A31370020556C74696D6F20416767696F726E616D656E746F98
:200760003A2000312E302E30004D61726C696E200020536F66747761726520526573657421
:2007800000205761746368646F67205265736574002042726F776E206F7574205265736596
:2007A00074002052657365742045737465726E6F00416363656E73696F6E650073746172F0
:2007C0007400FFFFFF0000A0400000A0400000803F00001644000016440000F04200000043
:2007E00000000000000000000000001644000016440000F042000000000000000000000013
:20080000006563686F3A004572726F723A00205A3A0020593A0020583A0052616767697543
:200820006E746F20696C20666F6E646F2063617272656C6C6F3A200024F4D43050C38E2091
:20084000C2A24017828B7011127A910D816CD90AA861E108C7586607615143061E4B5D0511
:20086000C145A7041A411104093D9803713931034036DB0265339102D4305402802E1D02F3
:20088000632CEE01752AC501B028A001102781018F2564012B244B01E0223401AC211F016B
:2008A0008D200D01801FFC00841EED00971DDF00B81CD200E61BC600201BBC00641AB2002C
:2008C000B219A8000A19A0006A189900D117910040178B00B516840031167E00B315790017
:2008E0003A157300C7146F0058146A00EE1366008813630025135E00C7125B006C12570012
:2009000015125400C111510070114F0021114B00D61049008D1047004610440002104200EB
:20092000C00F4000800F3E00420F3C00060F3B00CB0E3800930E37005C0E3500270E34000D
:20094000F30D3200C10D3100900D3000600D2E00320D2D00050D2C00D90C2B00AE0C290061
:20096000850C29005C0C2700350C27000E0C2600E80B2400C40B2400A00B23007D0B230003
:200980005A0B2100390B2100180B2000F80A1F00D90A1E00BB0A1E009D0A1D00800A1D00B9
:2009A000630A1C00470A1B002C0A1B00110A1A00F7091A00DD091900C4091900AB091900F0
:2009C000920917007B091800630917004C09160036091600200916000A091500F50815000D
:2009E000E0081400CC081400B8081400A4081400900813007D0812006B0813005808120045
:200A00004608120034081100230811001208110001081100F0071000E0071000D0071000C3
:200A2000C0071000B0070F00A107100091070E0083070F0074070F0065070E0057070E00B2
:200A400049070E003B070D002E070E0020070D0013070D0006070D00F9060C00ED060D0026
:200A6000E0060C00D4060C00C8060C00BC060C00B0060C00A4060B0099060C008D060B0036
:200A800082060B0077060B006C060B0061060A0057060B004C060A0042060A0038060A00EF
:200AA0002E060A0024060A001A060A001006090007060A00FD050900F4050900EB0509005E
:200AC000E2050900D9050900D0050900C7050900BE050900B5050800AD050800A505090091
:200AE0009C050800940508008C050800840508007C050800740508006C050700650508008E
:200B00005D050700560508004E050700470507004005080038050700310507002A05070058
:200B2000230507001C050600160507000F0507000805060002050700FB040600F5040700FC
:200B4000EE040600E8040600E2040700DB040600D5040600CF040600C9040600C304060081
:200B6000BD040600B7040600B1040500AC040600A6040600A00405009B04060095040500E1
:200B8000900406008A04050085040500800406007A04050075040500700405006B04050022
:200BA00066040500610405005C04050057040500520405004D040500480405004304050049
:200BC0003E0404003A04050035040500300404002C04050027040400230405001E04040060
:200BE0001A04040016040500110404000D040400090405000404040000040400FC0304005D
:200C0000F8030400F4030400F0030400EC030400E8030400E4030400E0030400DC0304004C
:200C2000D8030400D4030400D0030400CC030400C8030300C503030024F404D9201BC40CB7
:200C40005C0E9804C4095F0265077101F405F900FB04B30048048700C1036900580355002E
:200C600003034500BE023A008402310053022A002902250004022000E4011C00C8011900A0
:200C8000AF0117009801140084011300710110006101100051010E0043010D0036010B0061
:200CA0002B010B0020010B00150109000C01090003010800FB000800F3000800EB000700A0
:200CC000E4000600DE000600D8000600D2000600CC000500C7000500C2000500BD0004006B
:200CE000B9000400B5000400B1000400AD000400A9000400A5000300A20003009F0004007B
:200D00009B000300980003009500020093000300900003008D0002008B0003008800020033
:200D20008600020084000300810002007F0002007D0002007B0002007900020077000100B1
:200D4000760002007400020072000100710002006F0002006D0001006C0002006A00010007
:200D6000690002006700010066000100650001006400020062000100610001006000010047
:200D80005F0002005D0001005C0001005B0001005A00010059000100580001005700010075
:200DA000560001005500010054000100530000005300010052000100510001005000010094
:200DC0004F0001004E0000004E0001004D0001004C0001004B0000004B0001004A000100A9
:200DE0004900010048000000480001004700010046000000460001004500000045000100B8
:200E00004400010043000000430001004200000042000100410000004100010040000100BD
:200E20003F0000003F0001003E0000003E0001003D0000003D0001003C0000003C000000C3
:200E40003C0001003B0000003B0001003A0000003A000100390000003900010038000000BE
:200E60003800000038000100370000003700010036000000360000003600010035000000BA
:200E80003500000035000100340000003400000034000100330000003300000033000100B0
:200EA0003200000032000000320001003100000031000000310001003000000030000000A7
:200EC000300001002F0000002F0000002F0000002F0001002E0000002E0000002E00010099
:200EE0002D0000002D0000002D0000002D0001002C0000002C0000002C0000002C0001008C
:200F00002B0000002B0000002B0000002B0001002A0000002A0000002A0000002A0001007B
:200F200029000000290000002900000029000000290001002800000028000000280000006B
:200F4000280000002800010027000000270000002700000027000000270001002600000056
:200F6000260000002600000026000000260001002500000025000000250000002500000044
:200F800025000000250001002400000024000000240000002400000024000100230000002E
:200FA00023000000230000002300000023000000230000002300010022000000220000001A
:200FC000220000002200000022000000220001002100000021000000210000002100000004
:200FE0002100000021000000210001002000000020000000200000002000000020000000ED
:201000002000000020000000200001001F0000001F0000001F0000001F0000001F000000D4
:201020001F0000001F0001001E0000001E0000001E0000001E0000006563686F3A003A20C6
:201040004578747275646572207377697463686564206F66662E204D494E54454D5020746B
:2010600072696767657265642021003A204578747275646572207377697463686564206F2F
:2010800066662E204D415854454D5020747269676765726564202100202D20496E76616C95
:2010A0006964206578747275646572206E756D626572202100504944204175746F74756EF9
:2010C000652066696E6973686564212050757420746865204B702C204B6920616E64204BCD
:2010E0006420636F6E7374616E747320696E746F20436F6E66696775726174696F6E2E68A7
:2011000000504944204175746F74756E65206661696C6564212074696D656F757400204050
:201120003A006F6B20543A006F6B20423A00504944204175746F74756E65206661696C6504
:2011400064212054656D706572617475726520746F6F206869676800204B643A2000204B96
:20116000693A2000204B703A200020436C617369632050494420002054753A2000204B75C8
:201180003A2000206D61783A2000206D696E3A200020643A200020626961733A20004572C9
:2011A000726F723A0070012C0190012701B0012201C0011D01F00118011002130130020E28
:2011C000016002090190020401C002FF000003FA004003F5008003F000D003EB002004E6DA
:2011E000007004E100E004DC004005D700C005D2004006CD00D006C8008007C3003008BE36
:2012000000F008B900C009B400B00AAF00B00BAA00D00CA500000EA000500F9B00C0109643
:20122000005012910000148C00C0158700B0178200B0197D00D01B7800001E730040206E6E
:201240000090226900F024640040275F0090295A00E02B5500102E500020304B0010324611
:2012600000E033410090353C001037370070383200A0392D00B03A2800A03B2300603C1EF1
:2012800000103D1900903D1400103E0F00703E0A00C03E0500003F000000000A0B02090C84
:2012A0000D0E080703040100000000000000000000000000000000000000000000000000FC
:2012C0000000000000121110000000000000000000000000000000000000000000000001DA
:2012E000021020200808102040102040800201020108040201010204081020408080402038
:20130000100804020180040201804020100804020108040201010204081020408001020413
:20132000081020408005050505070508080808020202020A0A080804040404010101010134
:201340000101010303030303030303040707070C0C0C0C0C0C0C0C020202020606060606D3
:201360000606060B0B0B0B0B0B0B0B00002200250028002B002E00310034000201000005CE
:201380000108010B0100002100240027002A002D003000330001010000040107010A014EA9
:2013A000414E494E495459494E46CDCCCC3D0AD7233C17B7D13877CC2B329595E6241FB1D7
:2013C0004F0A000020410000C84200401C4620BCBE4CCA1B0E5AAEC59D74582811241FBE5E
:2013E000CFEFD1E2DEBFCDBF00E00CBF14E0A0E0B2E0EEEEF8EB00E00BBF02C007900D9241
:20140000AE30B107D9F72DE0AEE0B4E001C01D92AD30B207E1F713E1CCEDD3E100E006C052
:2014200022970109FE010BBF0E94AB56CA3DD10780E00807A9F70E94A6510C94755C0C94E5
:201440000000CF93DF93C2E7D3E0FE018491882341F09091C00095FFFCCF8093C60031968C
:20146000F5CFE2E6F3E08491882341F09091C00095FFFCCF8093C6003196F5CF8091C000A7
:2014800085FFFCCF8AE08093C600FE018491E2E7F3E0882349F09091C00095FFFCCF8093D3
:2014A000C60031968491F5CF4091420C5091430C6091440C7091450C8AE593E04AD7409110
:2014C000460C5091470C6091480C7091490C87E593E03FD740914A0C50914B0C60914C0C4E
:2014E00070914D0C84E593E034D740914E0C50914F0C6091500C7091510C81E593E029D7C0
:201500008091C00085FFFCCF8AE08093C600FE018491E2E7F3E0882349F09091C00095FF5F
:20152000FCCF8093C60031968491F5CFE7E3F3E08491882341F09091C00095FFFCCF809386
:20154000C6003196F5CF8091C00085FFFCCF8AE08093C600FE018491E2E7F3E0882349F043
:201560009091C00095FFFCCF8093C60031968491F5CF4091520C5091530C6091540C7091F1
:20158000550C8EE293E0E5D64091560C5091570C6091580C7091590C8BE293E0DAD64091B9
:2015A0005A0C50915B0C60915C0C70915D0C88E293E0CFD640915E0C50915F0C6091600C54
:2015C0007091610C85E293E0C4D68091C00085FFFCCF8AE08093C600FE018491E2E7F3E016
:2015E000882349F09091C00095FFFCCF8093C60031968491F5CFE7E0F3E08491882341F0C3
:201600009091C00095FFFCCF8093C6003196F5CF8091C00085FFFCCF8AE08093C600FE01C4
:201620008491E2E7F3E0882349F09091C00095FFFCCF8093C60031968491F5CF4091320C4D
:201640005091330C6091340C7091350C8EEF92E091D64091360C5091370C6091380C709134
:20166000390C8BEF92E086D640913A0C50913B0C60913C0C70913D0C88EF92E07BD6409110
:201680003E0C50913F0C6091400C7091410C85EF92E070D68091C00085FFFCCF8AE0809380
:2016A000C600FE018491E2E7F3E0882349F09091C00095FFFCCF8093C60031968491F5CF17
:2016C000E0ECF2E08491882341F09091C00095FFFCCF8093C6003196F5CF8091C00085FF82
:2016E000FCCF8AE08093C600FE018491E2E7F3E0882349F09091C00095FFFCCF8093C6002F
:2017000031968491F5CF40912A0C50912B0C60912C0C70912D0C87EB92E01BD64091260CCF
:201720005091270C6091280C7091290C84EB92E010D68091C00085FFFCCF8AE08093C60010
:20174000FE018491E2E7F3E0882349F09091C00095FFFCCF8093C60031968491F5CFE1E07B
:20176000F2E08491882341F09091C00095FFFCCF8093C6003196F5CF8091C00085FFFCCFE2
:201780008AE08093C600FE018491E2E7F3E0882349F09091C00095FFFCCF8093C600319692
:2017A0008491F5CF40912E0C50912F0C6091300C7091310C88EF91E0CCD54091160C509161
:2017C000170C6091180C7091190C85EF91E0C1D54091620C5091630C6091640C7091650CCE
:2017E00082EF91E0C7D54091220C5091230C6091240C7091250C8FEE91E0ABD540911E0CA0
:2018000050911F0C6091200C7091210C8CEE91E0A0D540911A0C50911B0C60911C0C7091F8
:201820001D0C89EE91E095D58091C00085FFFCCF8AE08093C600FE018491E2E7F3E088236F
:2018400049F09091C00095FFFCCF8093C60031968491F5CFE7EDF1E08491882341F09091DF
:20186000C00095FFFCCF8093C6003196F5CF8091C00085FFFCCF8AE08093C600FE0184916E
:20188000E2E7F3E0882349F09091C00095FFFCCF8093C60031968491F5CF409179065091DE
:2018A0007A0660917B0670917C068EEC91E051D540917D0650917E0660917F0670918006EC
:2018C0008BEC91E046D54091810650918206609183067091840688EC91E03BD58091C00079
:2018E00085FFFCCF8AE08093C600FE018491E2E7F3E0882349F09091C00095FFFCCF80936F
:20190000C60031968491F5CFEAEBF1E08491882341F09091C00095FFFCCF8093C6003196EA
:20192000F5CF8091C00085FFFCCF8AE08093C600FE01C491E2E7F3E0CC2349F08091C00097
:2019400085FFFCCFC093C6003196C491F5CF4091560250915702609158027091590280EBCA
:2019600091E0F7D4609152027091530280915402909155020E94CD4EAB01BC018DEA91E0A3
:20198000E8D460914E0270914F0280915002909151020E94D74EAB01BC018AEA91E0D9D45F
:2019A0008091C00085FFFCCF8AE08093C600DF91CF910895AF92BF92CF92DF92EF92FF92E1
:2019C0000F931F93CF93DF93CDB7DEB7E0970FB6F894DEBF0FBECDBF80E1EAE5F2E0DE0127
:2019E000919601900D928A95E1F780E1EAE6F2E0DE01519601900D928A95E1F780E1EAE777
:201A0000F2E0DE01119601900D928A95E1F76E0181E2C80ED11C82E4E82E8CE0F82E8E0115
:201A20000F5E1F4F62E57CE0AE014F5F5F4F92E3A92E9CE0B92E20E030E0F6018191919133
:201A4000A191B1916F01F70181939193A193B1937F01F80181919191A191B1918F01FB014D
:201A600081939193A193B193BF01FA0181919191A191B191AF01F50181939193A193B193FD
:201A80005F012F5F3F4F24303105B9F60E944C3D80E090E8ABE3B5E480932A0C90932B0CC4
:201AA000A0932C0CB0932D0C8093260C9093270CA093280CB093290C10922E0C10922F0C0C
:201AC0001092300C1092310C80E29EE4A0E0B0E08093620C9093630CA093640CB093650CEB
:201AE0001092160C1092170C1092180C1092190C80E090E0A0EAB1E48093220C9093230C4E
:201B0000A093240CB093250C8DEC9CECACECBEE380931E0C90931F0CA093200CB093210C5A
:201B200080E090E0A0EAB0E480931A0C90931B0CA0931C0CB0931D0C10928106109282061A
:201B4000109283061092840610927D0610927E0610927F06109280061092790610927A0651
:201B600010927B0610927C0687ED93EAA4EEB1E48093560290935702A0935802B0935902F4
:201B800061E77DE38AEC9FE30E94C84E6093520270935302809354029093550260E070E4D7
:201BA00081E093E40E94D24E60934E0270934F0280935002909351020E94964680E090E0CB
:201BC000A0E8BFE380934A0290934B02A0934C02B0934D02E2E7F3E08491882341F090914B
:201BE000C00095FFFCCF8093C6003196F5CFE8E8F1E08491882341F09091C00095FFFCCF90
:201C00008093C6003196F5CF8091C00085FFFCCF8AE08093C600E0960FB6F894DEBF0FBECC
:201C2000CDBFDF91CF911F910F91FF90EF90DF90CF90BF90AF9008951F920F920FB60F9239
:201C400011240BB60F922F933F934F935F936F938F939F93EF93FF936091C60020918F0420
:201C600030919004C90101968F77992740919104509192048417950741F0F901E15FFB4F1F
:201C800060839093900480938F04FF91EF919F918F916F915F914F913F912F910F900BBEDC
:201CA0000F900FBE0F901F9018959A01AB01211581EE38074105510549F182E08093C00087
:201CC00060E079E08DE390E00E9479562150310941095109CA01B90122E030E040E050E0E4
:201CE0000E9479563093C5002093C4008091C10080618093C1008091C10088608093C1005F
:201D00008091C10080688093C10008951092C00020E130E0E7CF20919104309192048091C1
:201D20008F04909190048217930771F0F901E15FFB4F80812F5F3F4F2F77332730939204CD
:201D40002093910490E008958FEF9FEF089580919104909192049093900480938F0408952E
:201D60004F925F926F927F928F929F92AF92BF92CF92DF92EF92FF920F931F93CF93DF938F
:201D8000CDB7DEB7A0970FB6F894DEBF0FBECDBF5C014115510561057105E9F420E030E0DA
:201DA00040E350E060E070E0A0960FB6F894DEBF0FBECDBFDF91CF911F910F91FF90EF9095
:201DC000DF90CF90BF90AF909F908F907F906F905F904F905BC08E010F5F1F4FC12CD12C0D
:201DE00076014801422E512C612C712C8FEFC81AD80AE80AF80ACB01BA01A30192010E9476
:201E00005756CA01F80161938F01A901BC01411551056105710551F7F1E0CF1AD108E1081A
:201E2000F108F401EC0DFD1D80818A3010F440E301C047E3480F552747FD5095652F752FA0
:201E400020E030E0C50122D081E0C81AD108E108F108EFEFCE16DE06EE06FE0611F7A096E0
:201E60000FB6F894DEBF0FBECDBFDF91CF911F910F91FF90EF90DF90CF90BF90AF909F9062
:201E80008F907F906F905F904F9008952115310539F48091C00085FFFCCF4093C6000895BB
:201EA0002A30310509F41CC05BCFCF93DF93EC0120E030E04DE050E060E070E0E7DF20E00B
:201EC00030E04AE050E060E070E0CE01DF91CF91DDCF9A01AB01662757FD6095762FD6CF56
:201EE000CF92DF92EF92FF92CF93DF93EC016A017B0177FF0FC020E030E04DE250E060E062
:201F000070E0C4DFF094E094D094C094C11CD11CE11CF11C2AE0B701A601CE01DF91CF9142
:201F2000FF90EF90DF90CF901BCF2115310539F48091C00085FFFCCF4093C600089510CF0D
:201F40009A01462F50E060E070E0EFCFCF93DF93EC019A01AB0160E070E0E7DFCE01DF9156
:201F6000CF91A3CF8F929F92AF92BF92CF92DF92EF92FF921F93CF93DF93EC016A017B016D
:201F8000122F20E030E0A901C701B6010E948E5287FF0CC020E030E04DE250E060E070E0F4
:201FA000CE0174DFF7FAF094F7F8F094B12C60E070E080E09FE3B11641F020E030E040E29E
:201FC00051E40E949552B394F6CF9B01AC01C701B6010E94B5516B017C010E9402534B019B
:201FE0005C010E942E539B01AC01C701B6010E94B4516B017C012AE0B501A401CE01B0DE47
:20200000112361F0EBE0F4E08191882339F09091C00095FFFCCF8093C600F6CF112319F19A
:2020200020E030E040E251E4C701B6010E9463556B017C010E94FD524B01AA2497FCA094A5
:20204000BA2CB501A401CE014BDFC501B4010E9430539B01AC01C701B6010E94B4516B01CB
:202060007C011150DBCFDF91CF911F91FF90EF90DF90CF90BF90AF909F908F90089572CFC2
:20208000FC01659175918591949108952F923F924F925F926F927F928F929F92AF92BF9215
:2020A000CF92DF92EF92FF920F931F93CF93DF9300D01F92CDB7DEB7FC01EE53F84F149150
:2020C0009C01220F331F220F331F3C832B832B57394F4901F901108211821282138221E94A
:2020E00036E04DE856E069E876E085E896E00E948A3C8B819C818F52984FC2DF6B017C01F2
:20210000612F772767FD7095872F972F0E9430532B013C012B813C81265A394F590120E053
:2021200030E040EC5FE3C701B6010E946355A30192010E946355F5016083718382839383CF
:202140002B813C812C5D3D4F3A832983F901608171818281938160930F0270931002809388
:2021600011029093120220E030E040E752E40E9495522CE6C22E26E0D22E7B018C0126E602
:2021800036E042E656E06EE576E08AE596E00E948E330E943745F401108211821282138279
:2021A00021E936E04DE856E069E876E085E896E00E948A3C2B813C812B53384F1901C90150
:2021C0005FDF9058A30192010E946355F501608371838283938320E030E040E752E4609102
:2021E0000F027091100280911102909112020E9495527B018C0126E636E042E656E06EE5FD
:2022000076E08AE596E00E948E330E943745C10137DF9B01AC010E94B551A30192010E9460
:202220006355F501608371838283938320E030E040E05FE3E981FA816081718182819381BD
:202240000E94635560930F0270931002809311029093120220E030E040E752E40E949552B8
:202260007B018C0126E636E042E656E06EE576E08AE596E00E948E330E9437458B819C819D
:202280008352984FFDDE0B811C810758194FF80120813181428153810E94B551F401608354
:2022A0007183828393838B819C818B50984FE8DE2B813C812359394F7901F801208131812B
:2022C000428153810E94B551F70160837183828393838B819C818751984FD2DE2B813C81D4
:2022E0002C5E3D4F7901F80120813181428153810E94B551F7016083718382839383F401E4
:2023000080819181A281B381F50180839183A283B38310920F02109210021092110210922D
:2023200012020F900F900F900F90DF91CF911F910F91FF90EF90DF90CF90BF90AF909F9054
:202340008F907F906F905F904F903F902F900C94233EFC012491222341F03091C00035FF16
:20236000FCCF2093C6000196F4CF22E030E08EE094E085CEFC012491222341F03091C000CF
:2023800035FFFCCF2093C6000196F4CF2AE030E08EE094E0CACDCF93DF931F921F92CDB71E
:2023A000DEB78091070D9091080D9E012F5F3F4F009719F42D503D4002C0281B390B3A83CE
:2023C000298389819A810F900F90DF91CF910895269A2E9808956BE070E084E994E00C9442
:2023E0005B2AF6DF40E052EC61E070E08EE094E05CDCECEBF7E08491882341F09091C000FA
:2024000095FFFCCF8093C6003196F5CF8091C00085FFFCCF8AE08093C60081E098E0FC01C0
:202420002491222341F03091C00035FFFCCF2093C6003196F5CF24B720FF14C0E1EBF7E07C
:202440003491332341F04091C00045FFFCCF3093C6003196F5CF3091C00035FFFCCF3AE0E2
:202460003093C60021FF14C0E2EAF7E03491332341F04091C00045FFFCCF3093C600319600
:20248000F5CF3091C00035FFFCCF3AE03093C60022FF14C0E1E9F7E03491332341F04091A2
:2024A000C00045FFFCCF3093C6003196F5CF3091C00035FFFCCF3AE03093C60023FF14C020
:2024C000E1E8F7E03491332341F04091C00045FFFCCF3093C6003196F5CF3091C00035FFA7
:2024E000FCCF3AE03093C60025FF14C0E1E7F7E02491222341F03091C00035FFFCCF209379
:20250000C6003196F5CF2091C00025FFFCCF2AE02093C60014BEE9E6F7E02491222341F0E4
:202520003091C00035FFFCCF2093C6003196F5CFE3E6F7E02491222341F03091C00035FF97
:20254000FCCF2093C6003196F5CF2091C00025FFFCCF2AE02093C600FC012491E1E0F8E07E
:20256000222349F03091C00035FFFCCF2093C60031962491F5CFEBE4F7E02491222341F0D3
:202580003091C00035FFFCCF2093C6003196F5CFECE2F7E02491222341F03091C00035FF32
:2025A000FCCF2093C6003196F5CFE0E2F7E02491222341F03091C00035FFFCCF2093C6008F
:2025C0003196F5CFE9E0F7E02491222341F03091C00035FFFCCF2093C6003196F5CF209170
:2025E000C00025FFFCCF2AE02093C600EEEFF6E02491222341F03091C00035FFFCCF209398
:20260000C6003196F5CFE2EFF6E02491222341F03091C00035FFFCCF2093C6003196F5CF13
:202620002091C00025FFFCCF2AE02093C600FC018491E1E0F8E0882349F09091C00095FFB3
:20264000FCCF8093C60031968491F5CFE0EEF6E08491882341F09091C00095FFFCCF80934E
:20266000C6003196F5CF97DE4AE050E0BC018EE094E02FDCE9ECF6E08491882341F09091D3
:20268000C00095FFFCCF8093C6003196F5CF4AE050E060ED74E08EE094E01BDC8091C00012
:2026A00085FFFCCF8AE08093C6001092B5041092B6041092B7041092B8047CD90E94210AF4
:2026C0000E9457480E9428320E94BA4484DEFFEF23ED80E3F15020408040E1F700C0000061
:2026E00008958091A9049091AA0460E070E001960C94D2568091A9049091AA044AE050E0DA
:2027000060E070E001960C943A58682F772767FD70952091B3043091B40440E6429FC00119
:20272000439F900D112487549B4F0E94A5599093AA048093A90421E0892B09F420E0822F8C
:2027400008950E94264F6093A5047093A6048093A7049093A804EFE1F4E08491882341F05A
:202760009091C00095FFFCCF8093C6003196F5CF8091C00085FFFCCF8AE08093C6000895B5
:202780008EE094E0E4DAE2E2F4E08491882341F09091C00095FFFCCF8093C6003196F5CF6C
:2027A00040913E0650913F0660914006709141064F5F5F4F6F4F7F4F2AE030E08EE094E07B
:2027C00065DB8091C00085FFFCCF8AE08093C600B8CF4F925F926F927F929F92AF92BF9228
:2027E000CF92DF92EF92FF920F931F93CF93DF9330E6B32EC4E0D0E00AE515E04AE0A42EA2
:202800005DEDE52E55E0F52E9924939480918F04909190042091910430919204821B930BEE
:202820008F779927892B09F414C28091AF049091B00404970CF00DC28EE094E06CDA809311
:20284000AE042091AC043091AD048A3061F08D3051F08A3321F49091AB04992321F02F3517
:2028600031050CF41EC12115310519F41092AB04F0C18091B1049091B204B89E6001B99E1D
:20288000D00C1124F601E20FF31FE754FB4F10822091AB04211100C1FC01EB54FB4F1082AB
:2028A000C60187549B4F3C016EE470E00E94A5590097F1F19093AA048093A90486199709C4
:2028C0008C0D9D1D4AE050E060E070E086549B4F0E943A58609342067093430680934406DF
:2028E0009093450640903E0650903F066090400670904106EFEF4E1A5E0A6E0A7E0AC090B6
:20290000B104D090B204641575058605970509F4E6C0BC9CC001BD9C900D112464EC76E045
:2029200087549B4F0E948B59892B09F0D8C065C16AE270E0C3010E94A559892B09F443C02D
:20294000E7E0F8E08491882341F09091C00095FFFCCF8093C6003196F5CFE0EEF5E084918B
:20296000882341F09091C00095FFFCCF8093C6003196F5CF40913E0650913F066091400665
:20298000709141062AE030E08EE094E07FDA8091C00085FFFCCF8AE08093C6001092AD04E4
:2029A0001092AC0456C18091420690914306A0914406B091450680933E0690933F06A093F2
:2029C0004006B09341068091B1049091B204B89E6001B99ED00C1124C60187549B4F3C01A2
:2029E00067E470E00E94A559009709F440C09093AA048093A904861997098C0D9D1D60E0A5
:202A000070E086549B4F0E94D2560E94FD526430710568F580919704811114C0F701849161
:202A2000EDEDF5E0882349F09091C00095FFFCCF8093C60031968491F5CF8091C00085FFF5
:202A4000FCCF13C0F8018491EAE5F5E0882349F09091C00095FFFCCF8093C600319684914D
:202A6000F5CF8091C00085FFFCCFA092C6008091B1049091B2040196BE010E944456909328
:202A8000B2048093B1048091AF049091B00401969093B0048093AF041092AD041092AC0446
:202AA000B5CE8B3311F49092AB049091AB049111ADCE4091B1045091B204B9016F5F7F4F9F
:202AC0007093AD046093AC04B49EF001B59EF00D1124E20FF31FE754FB4F808397CEBC9C8F
:202AE0003001BD9C700C1124C30187549B4F2C016AE270E00E94A559009781F5E7E0F8E0FD
:202B00008491882341F09091C00095FFFCCF8093C6003196F5CFE3E1F6E08491882341F095
:202B20009091C00095FFFCCF8093C6003196F5CF40913E0650913F06609140067091410637
:202B40002AE030E08EE094E0A1D98091C00085FFFCCF8AE08093C60013DE20CF20E0D12CBF
:202B6000F301E20FF11DE754FB4F30813A3219F02F5FD326F5CF9093AA048093A90484193E
:202B80009509860D971D60E070E086549B4F0E94D2560E94FD522D2D30E02617370709F45F
:202BA00002CFE7E0F8E08491882341F09091C00095FFFCCF8093C6003196F5CFE6E4F6E070
:202BC0008491882341F09091C00095FFFCCF8093C6003196F5CF40913E0650913F06609134
:202BE0004006709141062AE030E08EE094E04ED98091C00085FFFCCFACCFE7E0F8E08491D5
:202C0000882341F09091C00095FFFCCF8093C6003196F5CFE1E7F6E08491882341F0909184
:202C2000C00095FFFCCF8093C6003196F5CF40913E0650913F0660914006709141062AE04D
:202C400030E08EE094E022D98091C00085FFFCCF80CFDF91CF911F910F91FF90EF90DF907B
:202C6000CF90BF90AF909F907F906F905F904F9008958F929F92AF92BF92CF92DF92EF9288
:202C8000FF920F931F93CF93DF9365EBE62E63E0F62E05E816E0CAE5D6E077E9C72E76E0BD
:202CA000D72EF70181917F0130DD882311F119DD4B015C01F6018081811103C060913906AF
:202CC00001C061E070E080E090E00E943053F80120813181428153810E9463559B01AC0127
:202CE000C501B4010E94B551688379838A839B8309C0F80180819181A281B381888399834C
:202D0000AA83BB830C5F1F4F2496FFEFCF1ADF0A89EBE81683E0F80621F686E4F6DC882324
:202D2000D1F0DFDC6B017C0160934A0670934B0680934C0690934D0620E030E0A9010E9460
:202D40009154181644F4C0920F02D0921002E0921102F0921202DF91CF911F910F91FF9087
:202D6000EF90DF90CF90BF90AF909F908F90089580DF89E4CADC882351F0B3DC60934E0659
:202D800070934F06809350069093510608C010924E0610924F0610925006109251068AE4E4
:202DA000B4DC882351F09DDC60935206709353068093540690935506089510925206109253
:202DC000530610925406109255060895CF92DF92EF92FF92CF93DF93EC01C0906D06D0903C
:202DE0006E06E0906F06F0907006A7019601688179818A819B810E948E5287FF04C0C88225
:202E0000D982EA82FB82C0907106D0907206E0907306F0907406A70196016C817D818E81B3
:202E20009F810E948E5287FF04C0CC82DD82EE82FF82C0907506D0907606E0907706F090F4
:202E40007806A7019601688579858A859B850E948E5287FF04C0C886D986EA86FB86C090E1
:202E60001402D0901502E0901602F0901702A7019601688179818A819B810E9491541816A6
:202E800024F4C882D982EA82FB82C0901802D0901902E0901A02F0901B02A70196016C8152
:202EA0007D818E819F810E949154181624F4CC82DD82EE82FF82C0901C02D0901D02E0901D
:202EC0001E02F0901F02A7019601688579858A859B850E949154181624F4C886D986EA86EE
:202EE000FB86DF91CF91FF90EF90DF90CF900895CF92DF92EF92FF920F931F938AE596E0EB
:202F000065DF0E94264F6093A5047093A6048093A7049093A80420915A0630915B0640917C
:202F20005C0650915D06609185067091860680918706909188060E948E52811179C0209197
:202F40005E0630915F0640916006509161066091890670918A0680918B0690918C060E9460
:202F60008E52811165C020E030E040E752E460910F027091100280911102909112020E943D
:202F80009552ECE6CE2EE6E0DE2E7B018C0126E636E042E656E06EE576E08AE596E00E94F1
:202FA0008E3380915A0690915B06A0915C06B0915D068093850690938606A0938706B093D6
:202FC000880680915E0690915F06A0916006B09161068093890690938A06A0938B06B093CD
:202FE0008C068091620690916306A0916406B091650680938D0690938E06A0938F06B0938D
:2030000090068091660690916706A0916806B09169068093910690939206A0939306B0934C
:2030200094061F910F91FF90EF90DF90CF9008956091220270912302882777FD8095982FF3
:203040000E94305320910F023091100240911102509112020E94635520E030E040E752E416
:203060000E94955220E030E048EC52E488CFAF92BF92CF92DF92EF92FF920F931F93CF93CA
:20308000DF93D82F2091520630915306409154065091550660914E0670914F06809150062B
:2030A000909151060E949E54C62F172F082FF92E6091220270912302882777FD8095982F31
:2030C0000E94305320910F023091100240911102509112020E94635520E030E040E752E496
:2030E0000E94955220E030E048EC52E40E94955220916C062F93DF93FF920F931F93CF93A6
:203100005B016C01F2E0EF2E01E020E04EE456E06AE576E085E896E00E945F2B80915A0689
:2031200090915B06A0915C06B0915D068093850690938606A0938706B093880680915E0683
:2031400090915F06A0916006B09161068093890690938A06A0938B06B0938C068091620643
:2031600090916306A0916406B091650680938D0690938E06A0938F06B09390068091660603
:2031800090916706A0916806B09169068093910690939206A0939306B09394060E94264F2D
:2031A0006093A5047093A6048093A7049093A8040F900F900F900F900F900F90DF91CF91AF
:2031C0001F910F91FF90EF90DF90CF90BF90AF900895F8940E94DD485F9A8A9A9FB7F89446
:2031E000809108018160809308019FBF129A60E08CE00E94F250E7E0F8E08491882341F08E
:203200009091C00095FFFCCF8093C6003196F5CFEBEFF3E08491882341F09091C00095FFF7
:20322000FCCF8093C6003196F5CF8091C00085FFFCCF8AE08093C600FFCFCF92DF92EF92DB
:20324000FF920F931F930E94264F0091A1041091A2042091A3043091A404C090A504D090DB
:20326000A604E090A704F090A8046C197D098E099F09061717072807390728F4012B022BF4
:20328000032B09F0A6DF80910B0290910C02A0910D02B0910E02892B8A2B8B2B09F10E94E9
:2032A000264F0091A5041091A6042091A7043091A804601B710B820B930B00910B021091EA
:2032C0000C0220910D0230910E02061717072807390730F49091100780910F07981741F042
:2032E0001F910F91FF90EF90DF90CF900C9471335F9A8A9A9FB7F894809108018160809351
:2033000008019FBF129AECCF0E94DD4880919704811134C081E08093970480913E06909161
:203320003F06A0914006B091410680933A0690933B06A0933C06B0933D06E7E0F8E08491E3
:20334000882341F09091C00095FFFCCF8093C6003196F5CFE8E7F3E08491882341F0909139
:20336000C00095FFFCCF8093C6003196F5CF8091C00085FFFCCF8AE08093C60008958091B9
:2033800097040895CF93DF93EC0180916C068093980484E5BAD9811102C080E064C0A1D9B4
:2033A0000E940253609398046623B9F3E1E0F8E08491882341F09091C00095FFFCCF809375
:2033C000C6003196F5CFC936D10599F034F4C836D105C9F5EBEDF2E015C0CD36D10531F00B
:2033E000CA3DD10581F5EAE8F2E02AC0E5EAF2E01DC0E0ECF2E010C09091C00095FFFCCFC0
:203400008093C60081918111F7CF1DC09091C00095FFFCCF8093C60081918111F7CF13C036
:203420009091C00095FFFCCF8093C60081918111F7CF09C09091C00095FFFCCF8093C60027
:2034400081918111F7CF40E050E0609198048EE094E00E94A00F8091C00085FFFCCF8AE068
:203460008093C60081E0DF91CF9108953F924F925F926F927F928F929F92AF92BF92CF92AB
:20348000DF92EF92FF920F931F93CF93DF93CDB7DEB7A0970FB6F894DEBF0FBECDBF87E47F
:2034A00034D9882309F4FAC11CD90E94FD5264307105B1F144F46230710511F144F577FF19
:2034C00017C00C94A8266A35710509F493C134F46C31710509F461C00C94A8266B35710564
:2034E00009F48CC16C35710509F48DC10C94A82680919704811104C0BCDBFADC0C94142867
:2035000080919704811103C033DC81E006C080919704811105C02CDC80E0A9DD0C941428A7
:2035200080E5F3D8882331F0DCD80E9402534B015C0103C0812C912C540183E5E6D88823E8
:2035400059F0CFD820E030E04AE754E40E9463550E9402534B015C010E9437450E94264FD3
:203560006B017C01C80CD91CEA1CFB1C0E94264F6093A5047093A6048093A7049093A8048F
:203580000E94264F6C157D058E059F0510F00C94A8260E94B84651DEF3CF80910F02909198
:2035A0001002A0911102B09112028093460690934706A0934806B093490680912202909128
:2035C0002302909396068093950684E690E090932302809322020E94264F6093A50470934A
:2035E000A6048093A7049093A80481E00E942A3E8091850690918606A0918706B091880653
:2036000080935A0690935B06A0935C06B0935D068091890690918A06A0918B06B0918C0692
:2036200080935E0690935F06A0936006B093610680918D0690918E06A0918F06B091900652
:203640008093620690936306A0936406B09365068091910690919206A0919306B091940612
:203660008093660690936706A0936806B093690610920F0210921002109211021092120216
:2036800088E543D8882311F090E008C089E53DD88111FACF8AE539D891E0982790931302F8
:2036A00091110C94AB2688E530D881110C94AB268091130281110C94B12689E526D8811152
:2036C0000C94B1268091130281110C94B7268AE51CD881110C94B72688E517D88823C9F00C
:2036E00009D8672B682B692BA1F00E9471132091790630917A0640917B0650917C060E94B1
:20370000B5516093850670938606809387069093880689E50E9485138823D1F00E947A1302
:20372000672B682B692BA1F00E94711320917D0630917E0640917F06509180060E94B5513B
:203740006093890670938A0680938B0690938C068AE50E9485138823D1F00E947A13672B25
:20376000682B692BA1F00E947113209181063091820640918306509184060E94B55160938A
:203780008D0670938E0680938F069093900621E936E04DE856E069E876E085E896E00E94E7
:2037A0008A3C80E00E942A3E8091460690914706A0914806B091490680930F0290931002A6
:2037C000A0931102B0931202809195069091960690932302809322020E94264F6093A504B1
:2037E0007093A6048093A7049093A8040E94233E0C94A826109239060C94A82681E080935B
:2038000039060C94A82685E40E948513811102C00E94374565EBC62E63E0D62E79E7E72EE6
:2038200076E0F72E05E816E0B12CF60181916F010E948513882339F1F3E0BF120CC00E94B3
:203840007113F801608371838283938381E996E00E942F3D18C00E947113F70120813181C2
:20386000428153810E94B551F801608371838283938321E936E04DE856E069E876E085E87F
:2038800096E00E948A3CB394F4E0EF0EF11C0C5F1F4F24E0B212C9CF0C94A8268DE40E946B
:2038A0008513882311F40C94DD250E9471130E94FD526737710509F406C10CF079C0653560
:2038C000710509F4F5C4B4F56035710509F4A0C40CF56231710509F4B9C494F46131710593
:2038E00011F00C94A8265F988A989FB7F894809108018E7F809308019FBF12980C94A826A5
:203900006F31710509F4E2C06A32710509F461C10C94A8266235710509F491C40CF47BC4B5
:203920006335710509F48EC46435710509F48EC40C94A8266B36710509F465C424F568366A
:20394000710509F471C1ACF46C35710511F00C94A82625EB33E038A32F8F02E41CE062E5B7
:20396000862E6CE0962E76E0A72E7CE0B72E312C15C56936710509F485C16A36710509F475
:2039800014C40C94A8266237710509F437C534F46D36710509F482C20C94A82663377105D9
:2039A00009F40EC56537710509F418C50C94A8266C3D710509F44FC7B4F5693C710509F4EA
:2039C0007EC684F46937710509F4F6C50CF4F2C56C38710509F445C16E3B710509F4F7C2B4
:2039E0000C94A8266C3C710509F4A0C664F46B3C710511F00C94A82605EB13E042E5E42ED8
:203A00004CE0F42E84C66D3C710509F4AFC66E3C710511F00C94A82605EB13E039E7E32EDA
:203A200036E0F32E09C7603931E0730711F40C94D425C4F4683191E0790709F42AC734F465
:203A40006D3D710509F416C70C94A8266D32F1E07F0709F4AEC76F32714011F40C949C25DE
:203A60000C94A826663F31E0730711F40C94D7254CF4653F714011F00C94A8260E94DA0C7B
:203A80000C94DA25673FE1E07E0711F40C94DA25673E734011F00C94A826109297048091E2
:203AA0003A0690913B06A0913C06B0913D0680933E0690933F06A0934006B09341060E9409
:203AC000C0130C94A826E7E0F3E080C50E94264F6093990470939A0480939B0490939C0409
:203AE00000919D0410919E0420919F043091A004601B710B820B930B28EE33E040E050E0FD
:203B00000E945756CA01B9012CE330E040E050E00E9457567F936F933F932F938BE495E087
:203B20009F938F93CE0101969F938F930E94B059E1E0F8E084910FB6F894DEBF0FBECDBFD7
:203B4000882349F09091C00095FFFCCF8093C60031968491F5CFFE0131968191882339F01C
:203B60009091C00095FFFCCF8093C600F6CF8091C00085FFFCCF8AE08093C6008091E10B07
:203B8000882311F40C94A8261092E10B00916C0610E0000F111F0450134FF80160817181C5
:203BA000882777FD8095982F0E943053209138023091390240913A0250913B020E94915448
:203BC000181614F00C94A826F801118210820C94A82683E50E948513882311F40C94A826F9
:203BE0000E9471136B017C0180E50E948513882351F0C701B6010E94FD526F3F710509F09E
:203C000010F40C94BD266DE070E020E0E22FEE0FFF0BE358FC4F808191818617970711F48F
:203C20000C94A8262F5FF2CF88E690E0ABDB81110C94A82683E50E948513882371F0009124
:203C400098040E94711310E0000F111F0450134F0E94FD52F801718360830E94DC480C9496
:203C6000A82683E50E948513882311F40C94A8260E9471130E94FD527093FB0C6093FA0C9C
:203C80000C94A82689E690E07DDB81110C94A826E5E4F5E08491882341F09091C00095FF7B
:203CA000FCCF8093C6003196F5CFE091980424E0E29FF0011124EC50F34F40815181628129
:203CC000738121E030E08EE094E00E943F10E2E4F5E08491882341F09091C00095FFFCCF40
:203CE0008093C6003196F5CFE0919804F0E0EE0FFF1FE450F34F60817181882777FD8095E7
:203D0000982F0E943053AB01BC0121E030E08EE094E00E943F10EEE3F5E08491882341F0D3
:203D20009091C00095FFFCCF8093C6003196F5CF4091EE0C5091EF0C6091F00C7091F10C4D
:203D400021E030E08EE094E00E943F10EBE3F5E08491882341F09091C00095FFFCCF809398
:203D6000C6003196F5CF6091FA0C7091FB0C882777FD8095982F0E943053AB01BC0121E065
:203D800030E08EE094E00E943F10E8E3F5E08491882341F09091C00095FFFCCF8093C60096
:203DA0003196F5CF4AE050E060E070E08EE094E00E94690FE6E3F5E08491882341F09091E2
:203DC000C00095FFFCCF8093C6003196F5CF4091F40C5091F50C6091F60C7091F70C21E0B5
:203DE00030E08EE094E00E943F10E3E3F5E08491882341F09091C00095FFFCCF8093C6003B
:203E00003196F5CF6091FC0C7091FD0C882777FD8095982F0E943053AB01BC0121E030E076
:203E20008EE094E00E943F10EFE2F5E08491882341F09091C00095FFFCCF8093C600319638
:203E4000F5CF8091980490E00E94AD464AE050E0BC018EE094E00E94690FEAE2F5E0849123
:203E6000882341F09091C00095FFFCCF8093C6003196F5CF8FEF9FEF0E94AD464AE050E0C7
:203E8000BC018EE094E00E94690F8091C00085FFFCCF8AE08093C6000C9414288DE690E047
:203EA00071DA811155C71092E10B83E50E948513882391F0009198040E94711310E0000F5B
:203EC000111F0450134F0E94FD52F8017183608381E080930A0215C082E50E94851388239A
:203EE00081F0009198040E94711310E0000F111F0450134F0E94FD52F801718360831092B6
:203F00000A0283E50E948513882351F00E947113609338027093390280933A0290933B02C7
:203F200082E40E948513882351F00E94711360933C0270933D0280933E0290933F0286E43B
:203F40000E948513882369F00E9471136093340270933502809336029093370281E080937F
:203F6000E10B0E94DC480E94264F4B015C010091980410E0F801EE0FFF1FE450F34F608147
:203F80007181882777FD8095982F0E943053F801EE0FFF1FEE0FFF1FEC50F34F11E02081CC
:203FA0003181428153810E94915418160CF010E010939304CC24CA94DC2C760148EE442E68
:203FC00043E0542E612C712C5AE0352E37C783E50E948513882361F00E9471130E94FD52C2
:203FE0007093FB0C6093FA0C81E080930A020FC082E50E948513882351F00E9471130E941A
:20400000FD527093FB0C6093FA0C10920A020E94264F4B015C016091FA0C7091FB0C882732
:2040200077FD8095982F0E94305311E02091EE0C3091EF0C4091F00C5091F10C0E94915481
:2040400018160CF010E0109393040CE115E0E8E1EE2EE5E0FE2EF4E1CF2EF5E0DF2EAAE016
:204060007A2E809193046091FA0C7091FB0C882309F483C0882777FD8095982F0E943053E2
:204080002091EE0C3091EF0C4091F00C5091F10C0E94915418160CF09BC70E94264F681963
:2040A00079098A099B09693E73408105910508F460C0E0916C0634E0E39FF0011124EC50DA
:2040C000F34F4081518162817381F8018491ECE1F5E0882349F09091C00095FFFCCF80934D
:2040E000C60031968491F5CF22E030E08EE094E00E943F10F7018491E8E1F5E0882349F0E6
:204100009091C00095FFFCCF8093C60031968491F5CF60916C0670E04AE050E08EE094E0F7
:204120000E94690FF6018491E4E1F5E0882349F09091C00095FFFCCF8093C60031968491E6
:20414000F5CF4091EE0C5091EF0C6091F00C7091F10C21E030E08EE094E00E943F10809114
:20416000C00085FFFCCF7092C6000E94264F4B015C010E94B84661D874CF882777FD809554
:20418000982F0E9430532091EE0C3091EF0C4091F00C5091F10C0E948E5287FF19C7809128
:2041A0000A02882309F479CF13C783E50E948513882311F10E94711320E030E0A9010E9458
:2041C0008E5287FD0FC00E94711320E030E04FE753E40E949154181644F00E9471130E9458
:2041E000FD5205C060E070E002C06FEF70E070936B0660936A06ACC58FEF90E090936B06E1
:2042000080936A06A5C510926B0610926A06A0C5269A2E989DC50E94DD480E943745129AAE
:204220000E949D4510926B0610926A0668EE73E080E090E00E94554F269A2E9A89C510929E
:204240009A0686C581E080939A0682C583E50E948513882399F00E94711320E030E04AE7DB
:2042600054E40E9463550E94025360930B0270930C0280930D0290930E026AC588E50E9411
:2042800085138111B0C689E50E9485138111ABC68AE50E9485138111A6C685E40E94851389
:2042A0008111A1C60E943745129A0E949D4550C583E50E9485130E94711320E030E04AE799
:2042C00054E40E9463550E9402536093A1047093A2048093A3049093A4043AC5F3E03F126C
:2042E00067C00E9471136B017C0120E030E040EA51E40E948E5287FF3FC0A7019601F801DA
:2043000060817181828193810E9495522B013C019B01AC0160911A0C70911B0C80911C0C00
:2043200090911D0C0E94635560931A0C70931B0C80931C0C90931D0CA3019201F401608102
:204340007181828193810E946355F4016083718382839383F50160817181828193810E9491
:204360002E53A30192010E9463550E940253F5016083718382839383F801C082D182E2825A
:20438000F38233940C5F1F4FF4E08F0E911C24E0A20EB11C34E0331609F4DAC4EF8DF8A15C
:2043A0008191F8A3EF8F0E948513882351F396CF0E947113F8016083718382839383E1CF83
:2043C000EBE7F4E08491882309F4C2C49091C00095FFFCCF8093C6003196F4CF8091A90493
:2043E0009091AA046AE270E005960E94A559009709F4AEC4FC0131971082AAC4E8E7F4E0A9
:204400008491882341F09091C00095FFFCCF8093C6003196F5CF409185065091860660914D
:2044200087067091880622E030E08EE094E00E943F10E5E7F4E08491882341F09091C00009
:2044400095FFFCCF8093C6003196F5CF4091890650918A0660918B0670918C0622E030E0A1
:204460008EE094E00E943F10E2E7F4E08491882341F09091C00095FFFCCF8093C6003196FB
:20448000F5CF40918D0650918E0660918F067091900622E030E08EE094E00E943F10EFE6A8
:2044A000F4E08491882341F09091C00095FFFCCF8093C6003196F5CF4091910650919206B2
:2044C000609193067091940622E030E08EE094E00E943F10E3E6F4E08491882341F0909123
:2044E000C00095FFFCCF8093C6003196F5CF0E948F450E9430532091420C3091430C4091BE
:20450000440C5091450C0E949552AB01BC0122E030E08EE094E00E943F10E0E6F4E0849193
:20452000882341F09091C00095FFFCCF8093C6003196F5CF81E00E948F450E94305320914E
:20454000460C3091470C4091480C5091490C0E949552AB01BC0122E030E08EE094E00E9412
:204560003F10EDE5F4E08491882341F09091C00095FFFCCF8093C6003196F5CF82E00E94AD
:204580008F450E94305320914A0C30914B0C40914C0C50914D0C0E949552AB01BC0122E0AC
:2045A00030E08EE094E00E943F108091C00085FFFCCFCBC380E001C081E00E942A3EC8C353
:2045C0009091C00095FFFCCF8093C60081918111F7CF8091C00085FFFCCF8AE08093C600F5
:2045E000E5E5F4E08491882341F09091C00095FFFCCF8093C6003196F5CF659903C0E6EFF2
:20460000F2E009C0E0E0F3E006C09091C00095FFFCCF8093C60081918111F7CF8091C00052
:2046200085FFFCCF8AE08093C600EDE4F4E08491882341F09091C00095FFFCCF8093C60039
:204640003196F5CF8091030181FD03C0E6EFF2E009C0E0E0F3E006C09091C00095FFFCCF70
:204660008093C60081918111F7CF8091C00085FFFCCF8AE08093C600E5E4F4E08491882337
:2046800041F09091C00095FFFCCF8093C6003196F5CF4B9903C0E6EFF2E009C0E0E0F3E09B
:2046A00006C09091C00095FFFCCF8093C60081918111F7CF8091C00085FFFCCF46C305EB98
:2046C00013E052E3E52E5CE0F52EF80181918F010E948513882349F00E9471130E9402536A
:2046E000F7016083718382839383F4E0EF0EF11C23E0093B120749F70E944C3D29C3F4E067
:20470000EF0EF11C23E0093B120709F421C3F80181918F010E948513882389F30E9471132C
:20472000F7016083718382839383E9CF83E50E948513882351F00E94711360932A0C7093F7
:204740002B0C80932C0C90932D0C84E50E948513882309F4FDC20E9471136093260C709323
:20476000270C8093280C9093290CF2C283E50E948513882351F00E94711360932E0C7093CF
:204780002F0C8093300C9093310C84E50E948513882351F00E9471136093160C7093170C3F
:2047A0008093180C9093190C82E40E948513882361F00E9471130E9402536093620C70935D
:2047C000630C8093640C9093650C88E50E948513882351F00E9471136093220C7093230C47
:2047E0008093240C9093250C8AE50E948513882351F00E94711360931E0C70931F0C809309
:20480000200C9093210C85E40E948513882309F49FC20E94711360931A0C70931B0C8093F4
:204820001C0C90931D0C94C2F4E0EF0EF11C23E0083B120709F48CC2F80181918F010E94E9
:204840008513882389F30E947113F7016083718382839383E9CF83E50E948513882309F487
:2048600077C20E9471130E94FD5270932302609322026EC283E50E948513882309F468C205
:204880000E9471130E94FD5270932102609320025FC280E50E948513882331F00E94711314
:2048A0000E94FD528B0102C00FEF1FEF83E50E948513882309F43CC00E9471130115110515
:2048C00031F40E94FD5284E994E02DD641C2E1E0F8E08491882341F09091C00095FFFCCF11
:2048E0008093C6003196F5CFECE3F3E08191882339F09091C00095FFFCCF8093C600F6CFEE
:204900004AE050E0B8018EE094E00E94690FEAE2F3E08191882339F09091C00095FFFCCFC3
:204920008093C600F6CF8091C00085FFFCCF0DC217FD0EC2E8E3F3E08191882339F0909161
:20494000C00095FFFCCF8093C600F6CFEBE3F3E08191882339F09091C00095FFFCCF8093C0
:20496000C600F6CF4AE050E0B8018EE094E00E94690FEAE7F3E08191882339F09091C00032
:2049800095FFFCCF8093C600F6CFC801880F991F800F911F8C569B4F47D64AE050E0BC01C3
:2049A0008EE094E00E94690F8091C00085FFFCCFCCC180E50E948513882351F00E9471139D
:2049C0006093560270935702809358029093590289E40E948513882361F00E9471130E94DA
:2049E000C84E6093520270935302809354029093550284E40E948513882361F00E9471135B
:204A00000E94D24E60934E0270934F02809350029093510283E40E948513882351F00E9433
:204A2000711360934A0270934B0280934C0290934D020E949646E8E3F3E08191882339F08E
:204A40009091C00095FFFCCF8093C600F6CFE3E4F3E08191882339F09091C00095FFFCCFB8
:204A60008093C600F6CF4091560250915702609158027091590222E030E08EE094E00E94F8
:204A80003F10E7E4F3E08191882339F09091C00095FFFCCF8093C600F6CF6091520270911F
:204AA000530280915402909155020E94CD4EAB01BC0122E030E08EE094E00E943F10EBE4E8
:204AC000F3E08191882339F09091C00095FFFCCF8093C600F6CF60914E0270914F0280919B
:204AE0005002909151020E94D74EAB01BC0122E030E08EE094E00E943F10EFE4F3E0819123
:204B0000882339F09091C00095FFFCCF8093C600F6CF40914A0250914B0260914C02709158
:204B20004D0222E030E08EE094E00E943F108091C00085FFFCCF09C185E40E948513882309
:204B400041F00E9471130E94FD528B0177FD0AC002C000E010E0C12CD12CB6E1EB2EB3E480
:204B6000FB2E06C0C12CD12CACE8EA2EA2E4FA2E83E50E948513882321F00E9471136B0112
:204B80007C0183E40E948513882331F00E9471130E94FD529B0102C025E030E0A801C70130
:204BA000B6010E94FD48D4C00E943745D1C00E94DA0CCEC00E94210ACBC084E50E94851303
:204BC000882309F481C00E9471130E94025360939804662391F1E1E0F8E08491882341F0AB
:204BE0009091C00095FFFCCF8093C6003196F5CFE3E5F3E08191882339F09091C00095FF1B
:204C0000FCCF8093C600F6CF40E050E0609198048EE094E00E94A00FE5E5F3E081918823C1
:204C200039F09091C00095FFFCCF8093C600F6CF8091C00085FFFCCF88C086E40E94851361
:204C40008823D9F00E9471136B017C0160934A0670934B0680934C0690934D0620E030E04F
:204C6000A9010E949154181644F4C0920F02D0921002E0921102F0921202E1E0F8E08491FD
:204C8000882341F09091C00095FFFCCF8093C6003196F5CFEAE6F3E08191882339F09091EA
:204CA000C00095FFFCCF8093C600F6CF60916C0670E04AE050E08EE094E00E94690F80911D
:204CC000C00085FFFCCF41C0E1E0F8E08491882341F09091C00095FFFCCF8093C60031965A
:204CE000F5CFEFE2F4E08491882341F09091C00095FFFCCF8093C6003196F5CF8091B304EE
:204D00009091B40420E6289FF001299FF00D1124E754FB4F8191882339F09091C00095FF22
:204D2000FCCF8093C600F6CFEDE2F4E08491882341F09091C00095FFFCCF8093C600319696
:204D4000F5CF8091C00085FFFCCF8AE08093C6000E94A11369C180E090E00E9446100C9444
:204D6000581B81E090E00E9446100C94621B82E090E00E9446100C946C1B0E9471130E9421
:204D8000FD520C94051E0E94264F8B019C01C701B601605F784D8F4F9F4F601B710B820B6E
:204DA000930BA30192010E945756BA01A9012AE030E08EE094E00E94950F8091C00085FFD3
:204DC000FCCF3092C6000E94264F4B015C010E94B8460E941D19FFEFCF16DF06EF06FF0696
:204DE00009F0A5C080919304E0919804F0E08F01000F111F000F111F0C50134FEE0FFF1FE9
:204E0000E450F34F60817181882309F478C0882777FD8095982F0E94305320E030E040E80D
:204E20005FE30E94B4519B01AC01F80160817181828193810E94915487FFB5C00E94264FC4
:204E4000681979098A099B09693E73408105910508F4BDCFE7E2F5E08491882341F090916A
:204E6000C00095FFFCCF8093C6003196F5CFE091980424E0E29FF0011124EC50F34F4081B8
:204E800051816281738121E030E08EE094E00E943F10E3E2F5E08491882341F09091C00019
:204EA00095FFFCCF8093C6003196F5CF6091980470E04AE050E08EE094E00E94690FEFE12C
:204EC000F5E08491882341F09091C00095FFFCCF8093C6003196F5CFF7FE55CFE8E2F3E0B2
:204EE00006C09091C00095FFFCCF8093C60081918111F7CF8091C00085FFFCCF62CF882769
:204F000077FD8095982F0E94305320E030E040E85FE30E94B5519B01AC01F80160817181E5
:204F2000828193810E948E521816ECF587CFF7FC2FC0E0919804F0E08F01000F111F000FD6
:204F4000111F0C50134FEE0FFF1FE450F34F60817181882777FD8095982F0E9430539B013F
:204F6000AC01F80160817181828193810E94B4510E94FD5297FF07C0909580957095619577
:204F80007F4F8F4F9F4F64307105810591055CF4F7FC14C00E94264F6C197D0960317742CE
:204FA00008F44CCF0BC00E94264F6B017C016F3F3FEF73078307930759F740CF0E94264F1F
:204FC00060939D0470939E0480939F049093A0040E94264F6093A5047093A6048093A704FD
:204FE0009093A804B5CE0E94374588E50E94851381115F9A89E50E94851381118A9A8AE542
:205000000E948513882341F09FB7F894809108018160809308019FBF85E40E9485138823D5
:2050200009F496CE129A94CEA0960FB6F894DEBF0FBECDBFDF91CF911F910F91FF90EF9056
:20504000DF90CF90BF90AF909F908F907F906F905F904F903F9008958091AF049091B004C5
:20506000039714F40E94E9138091AF049091B004892BC1F00E94361A8091AF049091B00467
:2050800001979093B0048093AF048091B3049091B404019664E070E00E9444569093B404F8
:2050A0008093B3040E94B8460E941D190C94943D84E994E048C1CF92DF92EF92FF920F93CD
:2050C0001F93CF93DF936C018B017A01EC01C456D94F888187FF04C0FB011182108223C050
:2050E0002CE02C9DC0012D9D900D11242881AC01420F511D27FD5A9520919B0630E042179B
:2051000053078CF42881AC01420F511D27FD5A959A01FA01EE0FFF1FE20FF31FE156F94F5A
:20512000208126FD19C088818F5F88838CE08C9D90018D9D300D11248881A901480F511D96
:2051400087FD5A9580919B0690E048175907B4F488818C303CF112C02881820F911D27FD83
:205160009A95FC01EE0FFF1FE80FF91FE156F94F808160E08F730E942B51D5CFF80180815B
:205180009181049680349C4918F480E49CE904C0F801808191810496F701918380838FEFDE
:2051A000888341C0F801808191814881B901640F711D47FD7A95AB01FB01EE0FFF1FE40F4A
:2051C000F51FE156F94F41815281840F951FF701918380838881A901480F511D87FD5A9566
:2051E000FA01EE0FFF1FE40FF51FE156F94F808186FF19C08881280F311D87FD3A95F901D9
:20520000EE0FFF1FE20FF31FE156F94F808161E08F73DF91CF911F910F91FF90EF90DF9010
:20522000CF900C942B51DF91CF911F910F91FF90EF90DF90CF9008951F920F920FB60F92A2
:2052400011240BB60F922F933F934F935F936F937F938F939F93AF93BF93EF93FF9348E90E
:2052600050E064E970E081E090E025DFFF91EF91BF91AF919F918F917F916F915F914F91BC
:205280003F912F910F900BBE0F900FBE0F901F9018951F920F920FB60F9211240BB60F9260
:2052A0002F933F934F935F936F937F938F939F93AF93BF93EF93FF9348EA50E064EA70E076
:2052C00082E090E0F8DEFF91EF91BF91AF919F918F917F916F915F914F913F912F910F9027
:2052E0000BBE0F900FBE0F901F9018951F920F920FB60F9211240BB60F922F933F934F93B9
:205300005F936F937F938F939F93AF93BF93EF93FF9348E251E064E271E080E090E0CBDE20
:20532000FF91EF91BF91AF919F918F917F916F915F914F913F912F910F900BBE0F900FBE39
:205340000F901F90189520919B062432A0F431E0320F30939B06FC012083822F90E0FC01A2
:20536000EE0FFF1FE80FF91FE156F94F88EB9BE09283818308952FEFFC0120830895DF9214
:20538000EF92FF920F931F93CF93DF93EC01D62E7A0189018881843208F065C061E08D2D06
:2053A0000E94F2508881A82FB0E0FD01EE0FFF1FEA0FFB1FE156F94F2D2D2F739081907CD5
:2053C000922B908360E272E06E197F0977FF02C06D5F7F4F7595679575956795698340E66A
:2053E00059E0401B510B57FF02C04D5F5F4F55954795559547954A836CE00E9438569CE0FA
:20540000899FB001112420E030E0A901460F571FFA01EE0FFF1FE40FF51FE156F94F90814C
:2054200096FD15C02F5F3F4F2C30310571F790E08130910509F51092900082E08093910001
:20544000109295001092940088BB80937100888190E0FC01EE0FFF1FE80FF91FE156F94FF9
:205460008081806480838881DF91CF911F910F91FF90EF90DF9008958230910569F41092BA
:20548000A00082E08093A1001092A5001092A40089BB80937200DBCF892BC9F61092200120
:2054A00082E08093210110922501109224018ABB80937300CCCF20E639E040E252E05FCFBF
:2054C000FC018081843270F5918128E830E0291B310997FD3395220F331F220F331F621728
:2054E00073077CF0928128E532E0291B310997FD3395220F331F220F331F621773070CF4C1
:205500009B014FB7F89490E0FC01EE0FFF1FE80FF91FE156F94F22503109220F331F328363
:2055200021834FBF08954F925F926F927F92AF92BF92CF92DF92EF92FF920F931F93CF930C
:20554000DF93EC01603282E078070CF040C077FD06C0653B71052CF064EB70E002C060E070
:2055600070E0898128E830E0281B310987FD3395220F331F220F331F5901CC24B7FCC09491
:20558000DC2C882777FD8095982F2A8148E552E0421B510927FD5395440F551F440F551FA9
:2055A0002A01662457FC6094762C7F926F925F924F9214EBE12EF12C00E010E020E030E05E
:2055C000A9010E9460510F900F900F900F90CE01DF91CF911F910F91FF90EF90DF90CF9087
:2055E000BF90AF907F906F905F904F9069CFFC0180818F3FB1F090E0FC01EE0FFF1FE80F1D
:20560000F91FE156F94F8181928143E0880F991F4A95E1F754E0969587955A95E1F70296DB
:20562000089580E090E00895AF92BF92CF92DF92EF92FF920F931F93CF93DF93EC01D7DF1F
:205640002A8148E552E0421B510927FD5395440F551F440F551F7A010027F7FC0095102F86
:20566000498128E830E0241B310947FD3395220F331F220F331F442737FD4095542F019627
:20568000BC01882777FD8095982F1F921F921F92E4EBEF93A12CB12C65010E9460510F90E8
:2056A0000F900F900F90CB01DF91CF911F910F91FF90EF90DF90CF90BF90AF9008952F9259
:2056C0003F924F925F926F927F928F929F92AF92BF92CF92DF92EF92FF920F931F93CF9397
:2056E000DF93CDB7DEB7C454D1090FB6F894DEBF0FBECDBF3C011B014A012FA309A7EBA62F
:205700002196ACAEBDAECEAEDFAE219734E0239F20011124440D551D5AAB49ABDA01CD902C
:20572000DD90ED90FC90FC01E40DF51D2081318142815381C701B6010E94B5516BAB7CABA5
:205740008DAB9EABB4E00B9F80011124F401E00FF11FF8AFEFAB80809180A280B380F30145
:20576000E00FF11F2081318142815381C501B4010E94B55169AF7AAF8BAF9CAF2BA5F4E0B3
:205780002F9FC0011124F301E80FF91F2081318142815381298F3A8F4B8F5C8FF101E80F29
:2057A000F91F60817181828193810E94B4516F8F78A389A39AA3D1011C968D919D910D9051
:2057C000BC91A02D8DA79EA7AFA7B8ABD3011C962D913D914D915C911F972BA33CA34DA34D
:2057E0005EA3A701960150582D8B3E8B4F8B588FD501C401B058898B9A8BAB8BBC8BF10134
:20580000E40DF51D2BA93CA94DA95EA960817181828193810E94B4516B017C01F101E00F74
:20582000F11F29AD3AAD4BAD5CAD60817181828193810E94B4514B015C01A70196016D892B
:205840007E898F89988D0E9463552B013C01A501940169897A898B899C890E9463559B01E2
:20586000AC01C301B2010E94B5512B013C01A50194016D897E898F89988D0E9463554B01D8
:205880005C01A701960169897A898B899C890E9463559B01AC01C501B4010E94B451A301D5
:2058A00092010E9428526B017C0120E030E0A9010E948E5287FF0AC02BED3FE049EC50E424
:2058C000C701B6010E94B5516B017C016F968FAD6F97882351F02BED3FE049EC50E4C7011D
:2058E000B6010E94B4516B017C016E962CAD3DAD4EAD5FAD6E97C701B6010E9463552F8DF9
:2059000038A149A15AA15F770E949E544B015C012FE632E143E85AE30E948E5287FDC4C19B
:20592000C501B4010E946B530E9402537E8F6D8FDB01AB2B21F4E1E0F0E0FE8FED8F2D8D71
:205940003E8DB90180E090E00E942E534B015C019B01AC01C701B6010E9495522B013C016C
:20596000A50194016F8D78A189A19AA10E94955225966CAF7DAF8EAF9FAF25972BA13CA1F7
:205980004DA15EA16DA57EA58FA598A90E94B451A50194010E9495526DA77EA78FA798AB53
:2059A00020E030E040E05FE3C301B2010E946355A30192010E9463559B01AC0160E070E03A
:2059C00080E89FE30E94B4516F8F78A389A39AA3CE010196FC014BA534E0439FE00DF11D70
:2059E0001124298D3A8D4B8D5C8D20833183428353832BA13CA14DA15EA12D873E874F875D
:205A0000588BB12C41E050E05A8F498F81E090E08C0F9D1FBFA1A4E0BA9F800D911D1124DF
:205A20009CA78BA721E030E02C0F3D1F59A544E0549F200D311D11243AA729A7F8A7EFA3A2
:205A4000498D5A8D8D8D9E8D4817590708F017C188E18B150CF444C02F8D38A149A15AA12E
:205A600069897A898B899C890E9463556B017C01A30192016D897E898F89988D0E946355EA
:205A8000A70196010E94B551A62E172F982E892E2F8D38A149A15AA16D897E898F89988DD4
:205AA0000E9463556B017C01A301920169897A898B899C890E9463559B01AC01C701B6011C
:205AC0000E94B4516D8B7E8B8F8B988FB3948A2D912FA92DB82D898B9A8BAB8BBC8B6AC084
:205AE000A98DBA8DBD0180E090E00E942E53A30192010E9463556B017C010E949252698B84
:205B00007A8B8B8B9C8BC701B6010E94C6554B015C01E9A9FAA9C080D180E280F380F7FAD2
:205B2000F094F7F8F094AFA9B8AD2D913D914D915C912BA33CA34DA35EA329893A894B8973
:205B40005C89C701B6010E9463556D8B7E8B8F8B988FA50194016BA17CA18DA19EA10E94D2
:205B600063559B01AC016D897E898F89988D0E94B5516D8B7E8B8F8B988FA5019401C701FD
:205B8000B6010E9463556B017C0129893A894B895C896BA17CA18DA19EA10E9463559B0151
:205BA000AC01C701B6010E94B451698B7A8B8B8B9C8BB12C2D893E894F89588D6BA97CA98C
:205BC0008DA99EA90E94B551EBA5FCA5608371838283938329893A894B895C8969AD7AAD12
:205BE0008BAD9CAD0E94B551A9A5BAA56D937D938D939C93139725962CAD3DAD4EAD5FAD41
:205C00002597EFA1F8A560817181828193810E94B551AFA1B8A56D937D938D939C93139753
:205C20002DA53EA54FA558A96D857E858F8598890E94B5516D877E878F87988BCE01019650
:205C40000E94E616FE01E15AFF4F6F012196ECACFDAC0EAD1FAD21979E01235F3F4FAE0119
:205C6000475F5F4FBE016B5F7F4FCE01019656D5298D3A8D2F5F3F4F3A8F298FE1CE91018D
:205C8000245F3F4FA101485F5F4FB1016C5F7F4FDE01A15ABF4F6D012196ECACFDAC0EADA8
:205CA0001FAD2197C1013AD5CC5BDF4F0FB6F894DEBF0FBECDBFDF91CF911F910F91FF9044
:205CC000EF90DF90CF90BF90AF909F908F907F906F905F904F903F902F9008952F923F9202
:205CE0004F925F926F927F928F929F92AF92BF92CF92DF92EF92FF920F931F93CF93DF93D0
:205D0000CDB7DEB768970FB6F894DEBF0FBECDBF1C012A013B0148015901DC01D8966D91B4
:205D20007D918D919C91DB970E942E536B017C01A30192010E9463550E947B520E94025395
:205D40006D877E878F87988BA5019401C701B6010E9463550E947B520E940253698B7A8B9E
:205D60008B8B9C8B2D853E854F855889283731054105510540F488E790E0A0E0B0E08D8754
:205D80009E87AF87B88B29893A894B895C89283731054105510540F488E790E0A0E0B0E0E3
:205DA000898B9A8BAB8BBC8B91012C5B3F4FD9018D919D910D90BC91A02D8D839E83AF8346
:205DC000B887BC01CD010E94305369837A838B839C83F10164AD75AD86AD97AD0E942E53FF
:205DE00069877A878B879C8720E030E0A90169817A818B819C810E948E52882339F1A701B6
:205E00009601C701B6010E9463554B015C0129853A854B855C85CA01B9010E9463559B01D0
:205E2000AC01C501B4010E94B4514B015C0129813A814B815C81CA01B9010E94B5519B0113
:205E4000AC01C501B4010E94955203C060E070E0CB010E947B520E94FD522B013C016D81BB
:205E60007E818F81988590958095709561957F4F8F4F9F4F0E9430534B015C01F101E05C2B
:205E8000FF4F60817181828193810E942E536D837E838F83988720E030E0A901C501B40150
:205EA0000E948E52882349F12D813E814F815885CA01B9010E9463556D8B7E8B8F8B988F40
:205EC000A7019601C701B6010E9463559B01AC016D897E898F89988D0E94B4516B017C0197
:205EE000A5019401C501B4010E94B5519B01AC01C701B6010E94955203C060E070E0CB01D4
:205F00000E946B53D10150968D909D90AD90BC90539775016401C418D508E608F7080E9489
:205F2000FD52C61AD70AE80AF90AF7FE6BC020E030E0A90169817A818B819C810E948E52F2
:205F4000882309F447C029813A814B815C81CA01B9010E94B5516B017C01C501B4010E9451
:205F60002E539B01AC01C701B6010E9463556B017C0129853A854B855C85CA01B9010E9450
:205F800063559B01AC01C701B6010E94B4516B017C012D813E814F815885CA01B9010E94B0
:205FA00063559B01AC01C701B6010E94B5516B017C0120E030E040E850E469817A818B8173
:205FC0009C810E9463559B01AC01C701B6010E94955203C060E070E0CB010E947B520E94C9
:205FE000FD522B013C0197FF03C0412C512C3201481459046A047B0410F024013501C12C85
:20600000D12C76018FB7F894F101E45BFF4F9081911121C0F101448A558A668A778AC40CC7
:20602000D51CE61CF71CD101C08ED18EE28EF38E2D853E854F85588924AF35AF46AF57AF0E
:20604000A05CBF4F29893A894B895C892D933D934D935C9313978FBF68960FB6F894DEBFC5
:206060000FBECDBFDF91CF911F910F91FF90EF90DF90CF90BF90AF909F908F907F906F90E1
:206080005F904F903F902F9008954F925F926F927F92AF92BF92CF92DF92EF92FF920F930B
:2060A0001F93CF93DF93EB017A01209709F458C04115510509F454C0AAA4BBA40CA51DA54A
:2060C0009501A8016EA17FA188A599A50E948E52882309F445C08FA981113AC0F70146A016
:2060E00057A060A471A4A3019201B501C8010E94915418166CF5A3019201C301B2010E9474
:2061000063556B017C018AA99BA9ACA9BDA9BC01CD0190589B01AC010E94B5512EA53FA591
:2061200048A959A90E9463559B01AC01C701B6010E94B4510E94D0556B017C019B01AC01AA
:20614000B501C8010E948E5287FD02C056018701A501B8014EA35FA368A779A781E08EABFE
:20616000DF91CF911F910F91FF90EF90DF90CF90BF90AF907F906F905F904F900895DF92AB
:20618000EF92FF920F931F93CF93DF93809110078FB7F894E0900F078FBF8091100790E05F
:2061A0008E1991098F7099270497F4F01091100713501F7040E050E000E0F12C8DE4D82EF2
:2061C0001E1591F0111101C010E11150D19EE0011124CF5ED84F602F7F2DCE0156DF402F4F
:2061E0005F2D0C2FFD2EECCFDF91CF911F910F91FF90EF90DF9008954F925F926F927F92D4
:20620000AF92BF92CF92DF92EF92FF920F931F93CF93DF938C01EB01009709F453C0FC01C3
:2062200087A981114FC046A057A060A471A4AEA0BFA0C8A4D9A49501A601C301B2010E94AB
:206240008E5287FF3FC0A3019201C301B2010E9463552B013C01F80182A993A9A4A9B5A95D
:20626000BC01CD0190589B01AC010E94B551F80126A537A540A951A90E9463559B01AC0194
:20628000C301B2010E94B4510E94D0557B018C019B01AC01B501C6010E948E5287FF02C080
:2062A000750186019701A801B501C6010E948E52882341F0A701B8014EA35FA368A779A742
:2062C00081E08EABDF91CF911F910F91FF90EF90DF90CF90BF90AF907F906F905F904F90BE
:2062E0000895EF92FF920F931F93CF93DF93F0900F0700E010E080E090E02DE4E22E2091BF
:206300001007F21689F0EF9CE0011124CF5ED84FAE01B80171DF81E08F0D803109F480E02D
:20632000F82EC8018E01EBCF40E050E0B801DF91CF911F910F91FF90EF905ECF4F925F92EF
:206340006F927F928F929F92AF92BF92CF92DF92EF92FF920F931F93CF93DF9390900F0705
:20636000C0E0D0E03DE4832E892D992787FD90952091100730E082179307B9F1889E5001B0
:20638000899EB00C1124C5018F5E984F5C01209729F18EA9811104C0F50186A98823F1F0DF
:2063A000CAA0DBA0ECA0FDA0A7019601F50166A177A180A591A50E9495522B013C01A70186
:2063C00096016EA17FA188A599A50E949552AB01BC0193018201CE0181DC1EAA9394F0E197
:2063E0009F1201C0912CE501BFCF2097E9F0CAA0DBA0ECA0FDA0A70196016DEC7CEC8CE4EC
:206400009DE30E9495524B015C01A70196016EA17FA188A599A50E949552AB01BC01950169
:206420008401CE015BDC1EAADF91CF911F910F91FF90EF90DF90CF90BF90AF909F908F9031
:206440007F906F905F904F90089599DE4ADF76CF1092100710920F0780E1E6EFFBE0DF017C
:206460001D928A95E9F71092E60B1092E70B1092E80B1092E90B1092EA0B1092EB0B10924B
:20648000EC0B1092ED0B1092EE0B1092EF0B1092F00B1092F10B1092F20B1092F30B109218
:2064A000F40B1092F50B1092E20B1092E30B1092E40B1092E50B08954F925F926F927F9278
:2064C0008F929F92AF92BF92CF92DF92EF92FF920F931F93CF93DF938091E10B882309F427
:2064E000EFC0C0903802D0903902E0903A02F0903B026091FC0C7091FD0C882777FD809524
:20650000982F0E94305320E030E040E050E40E94B5519601A7010E948E5287FDD1C05090CD
:206520000F07612C712C00E010E04DE4442E80911007581609F453C0852D90E0489EF00109
:20654000499EF00D1124EF5EF84F4081518162817381452B462B472B81F4448155816681DA
:206560007781452B462B472B41F44085518562857385452B462B472B69F1489EE001499EC6
:20658000D00D1124CF5ED84F6C857D858E859F850E9430534B015C01688979898A899B8973
:2065A0000E942E539B01AC01C501B4010E9495522AA13BA14CA15DA10E9463555B01D82F1C
:2065C000C92F9301A8010E94915418161CF435010D2F1C2F5394852D8F70582EA8CF2091BE
:2065E0003402309135024091360250913702B301C8010E9463559B01AC01B601C7010E9409
:20660000B5518B01D82FC92F9601A7010E948E5287FD03C06801ED2EFC2E00913C021091C3
:206620003D02D0913E02C0913F0298014D2F5C2FB601C7010E94915418161CF08601DE2D76
:20664000CF2D80900B0790900C07A0900D07B0900E0798014D2F5C2FC501B4010E949154AE
:206660001816D4F420E037ED43EA5CE3B8018D2F9C2F0E9463556B017C0128E431EE4AE7B5
:206680005FE3C501B4010E946355A70196010E94B5518B01D82FC92FC801AD2FBC2F8093CE
:2066A0000B0790930C07A0930D07B0930E07B8018D2F9C2F0E94FD527093FD0C6093FC0CBB
:2066C000DF91CF911F910F91FF90EF90DF90CF90BF90AF909F908F907F906F905F904F9006
:2066E000089560916A0690910F0780911007981781F080910F079DE4899FF0011124E75AE6
:20670000F84F608190911007891719F08F5F8F70F9CF70E089E00E94DC4FCECE2F923F9207
:206720004F925F926F927F928F929F92AF92BF92CF92DF92EF92FF920F931F93CF93DF9385
:20674000CDB7DEB7C956D1090FB6F894DEBF0FBECDBF2C015B014A013901EBA6FBAA1CABD5
:20676000DBAECAAEC09010072C2D2F5F29AF203109F419AEC9ACEC2CFF24E7FCF0948091B5
:206780000F0790E08E159F0529F40E94B8460E941D19F5CF2091420C3091430C4091440CA3
:2067A0005091450CD2016D917D918D919C910E9463550E9433556E966CAF7DAF8EAF9FAF23
:2067C0006E972091460C3091470C4091480C5091490CF50160817181828193810E94635508
:2067E0000E94335562966CAF7DAF8EAF9FAF629720914A0C30914B0C40914C0C50914D0C2A
:20680000D4016D917D918D919C910E9463550E94335566966CAF7DAF8EAF9FAF669720914C
:206820004E0C30914F0C4091500C5091510CF30160817181828193810E9463550E94335515
:206840006A966CAF7DAF8EAF9FAF6A9780911007FDE48F9F1001112491012F5E384F190128
:20686000F901E45BFF4F10828091F60B9091F70BA091F80BB091F90B6E96CCACDDACEEACB2
:20688000FFAC6E97C81AD90AEA0AFB0AD701C6014090FA0B5090FB0B6090FC0B7090FD0B31
:2068A00062968CAC9DACAEACBFAC629784189508A608B7088C0C9D1CAE1CBF1C8FA298A696
:2068C000A9A6BAA6B7FE0BC0CC24DD247601C818D908EA08FB08CFA2D8A6E9A6FAA6CFA0DE
:2068E000D8A4E9A4FAA4F101C082D182E282F3826296CCACDDACEEACFFAC62974C185D0891
:206900006E087F08480E591E6A1E7B1E4BA25CA26DA27EA277FE0BC0CC24DD247601C418EE
:20692000D508E608F708CBA2DCA2EDA2FEA2CBA0DCA0EDA0FEA0D1011496CD92DD92ED9298
